:1000000012C02AC029C028C027C026C073C224C07D
:1000100023C022C021C020C01FC01EC01DC007C1F8
:100020004EC11AC019C011241FBECFEDCDBF10E0C4
:10003000A0E6B0E0E2E4F6E002C005900D92A23640
:10004000B107D9F720E0A2E6B0E001C01D92AA39BD
:10005000B207E1F749D2F3C2D3CF88E690E0E5C119
:10006000CF93C0E06FE070E088E690E0F3D16C2FB2
:1000700088E690E012D288E690E00DD264EF71E05D
:1000800080E090E0A8D2CF5FC93061F76FE070E008
:1000900088E690E0DFD16C2F88E690E0FED188E61C
:1000A00090E0F9D164EF71E080E090E094D2C1502B
:1000B00069F7CF910895C59AC79ABF9ABD9A8FEFF5
:1000C0008FB98AE28DB980EF8EB908958091790059
:1000D00008958EB98BE29EE09A95F1F78DB9B79BA2
:1000E000FECF96E09A95F1F700C08DB9769BF3CFDD
:1000F0008EE08A95F1F78FB19FEF9FB9BD9A089571
:10010000C598C79AB79BFECF86E08A95F1F700C0E5
:10011000C59A8EE08A95F1F79EB1892F807295FD80
:1001200004C098E090937900089581E00895FF92CB
:100130000F931F93CF93DF93162F042F21E020936B
:100140007900FC01208120FD03C023E02093790089
:10015000C79AB79BFECFF6E0FA95F1F700C0C598B5
:1001600026E02A95F1F700C0C798C59A779902C092
:1001700087E018C0EC01FF24FA9480917900837025
:10018000F9F0C79888818FB980EFA3DFBD988EEF13
:10019000A0DF80FF0FC090917900892F817090FFC0
:1001A00005C086E08093790080E01CC095E09093C4
:1001B000790018C0809179008E7F809379000BC000
:1001C000BD9880EF86DF8883113011F4FFB801C03D
:1001D0001FB88EEF7EDF115021961111CECF011185
:1001E0008FDF81E0DF91CF911F910F91FF900895F4
:1001F000909163009F5F9F70209162009217E1F3DE
:10020000E92FF0E0E657FF4F808390936300089555
:100210009091640080916500891B8F700895909182
:100220006300809162009F5F891B8F7008951F9209
:100230000F920FB60F9211240F931F932F933F939A
:100240004F935F936F937F938F939F93AF93BF93DE
:10025000CF93EF93FF9300916C0010916D00011507
:10026000110561F0C091650080916400C81731F0FC
:10027000CFDF90E0F8010995C0936400109266000A
:10028000BD98B79B04C0B59BFCCF88EA01C088EF3E
:100290008DB980EF8EB9FF91EF91CF91BF91AF9162
:1002A0009F918F917F916F915F914F913F912F918E
:1002B0001F910F910F900FBE0F901F9018951F92D6
:1002C0000F920FB60F9211240F931F932F933F930A
:1002D0004F935F936F937F938F939F93AF93BF934E
:1002E000CF93EF93FF9380916600823009F44CC066
:1002F00028F4882359F0813051F183C0843009F407
:1003000049C010F1853009F464C07BC08FB18823E7
:1003100031F08FB1869590916700891330C0789B3A
:100320000DC0E0916E00F0916F00309729F0809140
:10033000630080936200099581E001C084E08093AE
:1003400066001FB8BD9A5BC08FB1811118C0909133
:10035000620080916300981791F0809162008F5F36
:100360008F7080936200E0916200F0E0E657FF4FEB
:1003700080818FB982E080936600BD9A03C0BD98EA
:1003800088EA8DB980E73CC083E080936600BD9821
:100390001FB835C085E080936600BD9880E78EB9B0
:1003A00000916C0010916D000115110551F1C09183
:1003B000650080916400C81721F18EB18E7AE9F34F
:1003C000759B1FC025DF90E0F8010995C09364007C
:1003D00018C084E0809366009FB1809165008F5FB4
:1003E0008F7020916400821749F080936500E0913E
:1003F0006500F0E0E658FF4F9083A3CFBD988EE7ED
:100400008EB9FF91EF91CF91BF91AF919F918F9155
:100410007F916F915F914F913F912F911F910F911C
:100420000F900FBE0F901F90189510926B001092B6
:100430006A00109269003FCE81E080936900E091EC
:100440006000F0916100660F608380936B00809381
:100450006A000895F1CF462F60916A008091600094
:100460009091610064DE10926B0010926A0010920D
:10047000690081110EC02ADE853039F0863019F00E
:10048000813029F4089582E0089583E0089584E09E
:10049000089580E0089561E0DECFCF9380916900F8
:1004A0008823C1F080916A00803218F080E090E0EB
:1004B00019C080916B00E0916000F0916100E80F3D
:1004C000F11D608380916B008F5F80936B00809340
:1004D0006A0006C0C62FA3DE882341F38C2F88DE76
:1004E00081E090E0CF91089581B781BF99D0B5DDCB
:1004F000B7DDFECF1F920F920FB60F9211242F93EC
:100500003F938F939F93AF93BF938091710090918E
:100510007200A0917300B09174003091700026E0D9
:10052000230F2D3730F029E8230F0396A11DB11DAD
:1005300003C00296A11DB11D20937000809371002D
:1005400090937200A0937300B09374008091750033
:1005500090917600A0917700B09178000196A11D4E
:10056000B11D8093750090937600A0937700B093AF
:100570007800BF91AF919F918F913F912F910F90F4
:100580000FBE0F901F9018953FB7F894809175009B
:1005900090917600A0917700B091780022B708B6CC
:1005A00001FE05C02F3F19F00196A11DB11D3FBFEF
:1005B000BA2FA92F982F8827820F911DA11DB11D39
:1005C000BC01CD0143E0660F771F881F991F4A9534
:1005D000D1F708950895CF92DF92EF92FF92CF93D3
:1005E000DF936B017C01D0DFEB01C114D104E10486
:1005F000F10479F0EFDFC8DF6C1B7D0B683E7340C0
:10060000A0F381E0C81AD108E108F108C851DC4F15
:10061000F2CFDF91CF91FF90EF90DF90CF900895D0
:1006200080B7826080BF80B7816080BF83B7887FDA
:10063000836083BF789489B7826089BF0895F894F6
:02064000FFCFEA
:020642007A003C
:00000001FF
