:100000003DC055C054C053C052C051C05CC24FC067
:100010004EC04DC04CC04BC04AC049C048C020C1B2
:1000200067C145C044C054C058C059C066C070C004
:1000300071C075C082C092C0A5C0B5C000000000EC
:1000400000000002000000010304000000000102A3
:10005000020104081020400102040810204080041E
:100060000404010104040404040202020202020264
:10007000020100003B0038000000320011241FBEC6
:10008000CFEDCDBF10E0A0E6B0E0E0ECF6E002C0BE
:1000900005900D92A236B107D9F720E0A2E6B0E0B4
:1000A00001C01D92A839B207E1F707D207C3A8CF54
:1000B00088E690E0D5D10297DCF788E690E0DDD1C4
:1000C0008B30910508F084C0FC01ED5EFF4F099470
:1000D00061E080E0BFD261E026C060E02FC061E057
:1000E00080E0B8D261E081E0B5D260E084E0B2D2D5
:1000F00061E085E0AFD261E063C061E080E0AAD258
:1001000061E081E0A7D261E084E0A4D261E055C063
:1001100060E039C061E080E09DD260E037C061E01E
:1001200080E098D260E081E095D261E084E092D2F4
:1001300061E085E08FD261E032C061E080E08AD288
:1001400061E081E087D261E084E084D260E085E014
:1001500081D260E086E07ED260E010C061E080E0A5
:1001600079D261E081E076D261E084E073D261E02F
:1001700085E070D261E086E06DD261E087E06AD20E
:1001800060E024C061E080E065D261E081E062D29D
:1001900061E084E05FD261E085E05CD260E086E00F
:1001A00059D261E010C060E080E054D260E081E0AC
:1001B00051D260E084E04ED260E085E04BD260E056
:1001C00086E048D260E087E045D261E088E042C244
:1001D00008956FE070E088E690E040D168E570E057
:1001E00088E690E065C168EC70E080E090E0DCC1FA
:1001F00010926400109265001092620010926300E9
:100200000895CF93C82FF4DFC093670010926E005B
:1002100010926D0010926C0010926B00C79AC59AF4
:10022000BF9ABD9888EA8DB980EF8EB9CF910895B5
:1002300090916400809165009817E1F3E09164006B
:10024000EF5FEF70E0936400F0E0E858FF4F8081CB
:1002500008959091640080916500891B8F700895C6
:100260001F920F920FB60F9211240F931F932F938B
:100270003F934F935F936F937F938F939F93AF932E
:10028000BF93CF93EF93FF9300916B0010916C009D
:100290000115110561F0C091650080916400C817D7
:1002A00031F0D7DF90E0F8010995C0936400109217
:1002B0006600BD98B79B04C0B59BFCCF88EA01C01F
:1002C00088EF8DB980EF8EB9FF91EF91CF91BF91FB
:1002D000AF919F918F917F916F915F914F913F91DE
:1002E0002F911F910F910F900FBE0F901F90189597
:1002F0001F920F920FB60F9211240F931F932F93FB
:100300003F934F935F936F937F938F939F93AF939D
:10031000BF93CF93EF93FF9380916600823009F4EF
:100320004CC028F4882359F0813051F183C08430C7
:1003300009F449C010F1853009F464C07BC08FB165
:10034000882331F08FB1869590916700891330C072
:10035000789B0DC0E0916D00F0916E00309729F010
:100360008091630080936200099581E001C084E080
:10037000809366001FB8BD9A5BC08FB1811118C011
:100380009091620080916300981791F080916200D3
:100390008F5F8F7080936200E0916200F0E0E85719
:1003A000FF4F80818FB982E080936600BD9A03C0C1
:1003B000BD9888EA8DB980E73CC083E080936600F1
:1003C000BD981FB835C085E080936600BD9880E772
:1003D0008EB900916B0010916C000115110551F15F
:1003E000C091650080916400C81721F18EB18E7AAA
:1003F000E9F3759B1FC02DDF90E0F8010995C093CC
:10040000640018C084E0809366009FB1809165000D
:100410008F5F8F7020916400821749F08093650090
:10042000E0916500F0E0E858FF4F9083A3CFBD98BE
:100430008EE78EB9FF91EF91CF91BF91AF919F91D0
:100440008F917F916F915F914F913F912F911F916C
:100450000F910F900FBE0F901F901895862FD1CE41
:1004600080916900882331F090E020916A00821B1E
:1004700091090895EEDE90E00895F2DF892BA9F04E
:1004800080916900882371F020916A00E0916000FA
:10049000F0916100E20FF11D808190E02F5F2093C9
:1004A0006A000895C5DE90E008958FEF9FEF0895EC
:1004B00070936C0060936B00089581B781BF99D0F1
:1004C00088DE91DEFECF1F920F920FB60F9211249D
:1004D0002F933F938F939F93AF93BF93809170001F
:1004E00090917100A0917200B091730030916F00F3
:1004F00026E0230F2D3730F029E8230F0396A11DA6
:10050000B11D03C00296A11DB11D20936F00809301
:10051000700090937100A0937200B093730080916B
:10052000740090917500A0917600B09177000196CB
:10053000A11DB11D8093740090937500A093760067
:10054000B0937700BF91AF919F918F913F912F9181
:100550000F900FBE0F901F9018953FB7F8948091A1
:10056000740090917500A0917600B091770022B749
:1005700008B601FE05C02F3F19F00196A11DB11D5F
:100580003FBFBA2FA92F982F8827820F911DA11D39
:10059000B11DBC01CD0143E0660F771F881F991F75
:1005A0004A95D1F708950895CF92DF92EF92FF9286
:1005B000CF93DF936B017C01D0DFEB01C114D10439
:1005C000E104F10479F0EFDFC8DF6C1B7D0B683EBE
:1005D0007340A0F381E0C81AD108E108F108C851BE
:1005E000DC4FF2CFDF91CF91FF90EF90DF90CF9073
:1005F000089580B7826080BF80B7816080BF83B775
:10060000887F836083BF789489B7826089BF0895AB
:10061000813031F480B78F7780BF80B78F7B07C080
:10062000823039F480B78F7D80BF80B78F7E80BFE6
:100630000895833031F48FB58F778FBD8FB58F7B61
:1006400007C0843031F48FB58F7D8FBD8FB58F7E1D
:100650008FBD08951F93CF93DF93162F87FD8FEFE4
:10066000282F30E0F901E45CFF4F8491F901E25B4F
:10067000FF4FD491F901E05AFF4FC491CC23D1F040
:100680008111C6DFEC2FF0E0EE0FFF1FEE58FF4F99
:10069000A591B491111108C09FB7F8948C91D09591
:1006A000D823DC939FBF06C08FB7F894EC91DE2B64
:1006B000DC938FBFDF91CF911F910895F894FFCF06
:0206C0007800C0
:00000001FF
